{
	"contracts/lottery.sol": {
		"Lottery": {
			"abi": [
				{
					"inputs": [],
					"stateMutability": "nonpayable",
					"type": "constructor"
				},
				{
					"inputs": [],
					"name": "getbalance",
					"outputs": [
						{
							"internalType": "uint256",
							"name": "",
							"type": "uint256"
						}
					],
					"stateMutability": "view",
					"type": "function"
				},
				{
					"inputs": [],
					"name": "manager",
					"outputs": [
						{
							"internalType": "address",
							"name": "",
							"type": "address"
						}
					],
					"stateMutability": "view",
					"type": "function"
				},
				{
					"inputs": [
						{
							"internalType": "uint256",
							"name": "",
							"type": "uint256"
						}
					],
					"name": "participants",
					"outputs": [
						{
							"internalType": "address payable",
							"name": "",
							"type": "address"
						}
					],
					"stateMutability": "view",
					"type": "function"
				},
				{
					"inputs": [],
					"name": "random",
					"outputs": [
						{
							"internalType": "uint256",
							"name": "",
							"type": "uint256"
						}
					],
					"stateMutability": "view",
					"type": "function"
				},
				{
					"inputs": [],
					"name": "reset",
					"outputs": [],
					"stateMutability": "nonpayable",
					"type": "function"
				},
				{
					"inputs": [],
					"name": "selectwinner",
					"outputs": [
						{
							"internalType": "address",
							"name": "",
							"type": "address"
						}
					],
					"stateMutability": "view",
					"type": "function"
				},
				{
					"inputs": [],
					"name": "transfermoney",
					"outputs": [],
					"stateMutability": "nonpayable",
					"type": "function"
				},
				{
					"stateMutability": "payable",
					"type": "receive"
				}
			],
			"devdoc": {
				"kind": "dev",
				"methods": {},
				"version": 1
			},
			"evm": {
				"assembly": "    /* \"contracts/lottery.sol\":74:1432  contract Lottery{... */\n  mstore(0x40, 0x80)\n    /* \"contracts/lottery.sol\":174:224  constructor(){... */\n  callvalue\n  dup1\n  iszero\n  tag_1\n  jumpi\n  0x00\n  dup1\n  revert\ntag_1:\n  pop\n    /* \"contracts/lottery.sol\":206:216  msg.sender */\n  caller\n    /* \"contracts/lottery.sol\":198:205  manager */\n  0x00\n  dup1\n    /* \"contracts/lottery.sol\":198:216  manager=msg.sender */\n  0x0100\n  exp\n  dup2\n  sload\n  dup2\n  0xffffffffffffffffffffffffffffffffffffffff\n  mul\n  not\n  and\n  swap1\n  dup4\n  0xffffffffffffffffffffffffffffffffffffffff\n  and\n  mul\n  or\n  swap1\n  sstore\n  pop\n    /* \"contracts/lottery.sol\":74:1432  contract Lottery{... */\n  dataSize(sub_0)\n  dup1\n  dataOffset(sub_0)\n  0x00\n  codecopy\n  0x00\n  return\nstop\n\nsub_0: assembly {\n        /* \"contracts/lottery.sol\":74:1432  contract Lottery{... */\n      mstore(0x40, 0x80)\n      jumpi(tag_1, lt(calldatasize, 0x04))\n      shr(0xe0, calldataload(0x00))\n      dup1\n      0x5ec01e4d\n      gt\n      tag_10\n      jumpi\n      dup1\n      0x5ec01e4d\n      eq\n      tag_6\n      jumpi\n      dup1\n      0xd1bb551b\n      eq\n      tag_7\n      jumpi\n      dup1\n      0xd826f88f\n      eq\n      tag_8\n      jumpi\n      dup1\n      0xf06e40ba\n      eq\n      tag_9\n      jumpi\n      jump(tag_2)\n    tag_10:\n      dup1\n      0x35c1d349\n      eq\n      tag_3\n      jumpi\n      dup1\n      0x481c6a75\n      eq\n      tag_4\n      jumpi\n      dup1\n      0x4d9b3d5d\n      eq\n      tag_5\n      jumpi\n      jump(tag_2)\n    tag_1:\n      jumpi(tag_2, calldatasize)\n        /* \"contracts/lottery.sol\":291:298  2 ether */\n      0x1bc16d674ec80000\n        /* \"contracts/lottery.sol\":280:289  msg.value */\n      callvalue\n        /* \"contracts/lottery.sol\":280:298  msg.value==2 ether */\n      eq\n        /* \"contracts/lottery.sol\":272:332  require(msg.value==2 ether,\"Please give sufficient balance\") */\n      tag_13\n      jumpi\n      mload(0x40)\n      0x08c379a000000000000000000000000000000000000000000000000000000000\n      dup2\n      mstore\n      0x04\n      add\n      tag_14\n      swap1\n      tag_15\n      jump\t// in\n    tag_14:\n      mload(0x40)\n      dup1\n      swap2\n      sub\n      swap1\n      revert\n    tag_13:\n        /* \"contracts/lottery.sol\":363:370  manager */\n      0x00\n      dup1\n      sload\n      swap1\n      0x0100\n      exp\n      swap1\n      div\n      0xffffffffffffffffffffffffffffffffffffffff\n      and\n        /* \"contracts/lottery.sol\":351:370  msg.sender!=manager */\n      0xffffffffffffffffffffffffffffffffffffffff\n      and\n        /* \"contracts/lottery.sol\":351:361  msg.sender */\n      caller\n        /* \"contracts/lottery.sol\":351:370  msg.sender!=manager */\n      0xffffffffffffffffffffffffffffffffffffffff\n      and\n      sub\n        /* \"contracts/lottery.sol\":343:371  require(msg.sender!=manager) */\n      tag_16\n      jumpi\n      0x00\n      dup1\n      revert\n    tag_16:\n        /* \"contracts/lottery.sol\":382:394  participants */\n      0x01\n        /* \"contracts/lottery.sol\":409:419  msg.sender */\n      caller\n        /* \"contracts/lottery.sol\":382:421  participants.push(payable (msg.sender)) */\n      swap1\n      dup1\n      0x01\n      dup2\n      sload\n      add\n      dup1\n      dup3\n      sstore\n      dup1\n      swap2\n      pop\n      pop\n      0x01\n      swap1\n      sub\n      swap1\n      0x00\n      mstore\n      keccak256(0x00, 0x20)\n      add\n      0x00\n      swap1\n      swap2\n      swap1\n      swap2\n      swap1\n      swap2\n      0x0100\n      exp\n      dup2\n      sload\n      dup2\n      0xffffffffffffffffffffffffffffffffffffffff\n      mul\n      not\n      and\n      swap1\n      dup4\n      0xffffffffffffffffffffffffffffffffffffffff\n      and\n      mul\n      or\n      swap1\n      sstore\n      stop\n        /* \"contracts/lottery.sol\":74:1432  contract Lottery{... */\n    tag_2:\n      0x00\n      dup1\n      revert\n        /* \"contracts/lottery.sol\":128:165  address payable[] public participants */\n    tag_3:\n      callvalue\n      dup1\n      iszero\n      tag_18\n      jumpi\n      0x00\n      dup1\n      revert\n    tag_18:\n      pop\n      tag_19\n      0x04\n      dup1\n      calldatasize\n      sub\n      dup2\n      add\n      swap1\n      tag_20\n      swap2\n      swap1\n      tag_21\n      jump\t// in\n    tag_20:\n      tag_22\n      jump\t// in\n    tag_19:\n      mload(0x40)\n      tag_23\n      swap2\n      swap1\n      tag_24\n      jump\t// in\n    tag_23:\n      mload(0x40)\n      dup1\n      swap2\n      sub\n      swap1\n      return\n        /* \"contracts/lottery.sol\":99:121  address public manager */\n    tag_4:\n      callvalue\n      dup1\n      iszero\n      tag_25\n      jumpi\n      0x00\n      dup1\n      revert\n    tag_25:\n      pop\n      tag_26\n      tag_27\n      jump\t// in\n    tag_26:\n      mload(0x40)\n      tag_28\n      swap2\n      swap1\n      tag_29\n      jump\t// in\n    tag_28:\n      mload(0x40)\n      dup1\n      swap2\n      sub\n      swap1\n      return\n        /* \"contracts/lottery.sol\":451:621  function getbalance() public  view returns(uint)... */\n    tag_5:\n      callvalue\n      dup1\n      iszero\n      tag_30\n      jumpi\n      0x00\n      dup1\n      revert\n    tag_30:\n      pop\n      tag_31\n      tag_32\n      jump\t// in\n    tag_31:\n      mload(0x40)\n      tag_33\n      swap2\n      swap1\n      tag_34\n      jump\t// in\n    tag_33:\n      mload(0x40)\n      dup1\n      swap2\n      sub\n      swap1\n      return\n        /* \"contracts/lottery.sol\":654:811  function random() public view returns (uint){... */\n    tag_6:\n      callvalue\n      dup1\n      iszero\n      tag_35\n      jumpi\n      0x00\n      dup1\n      revert\n    tag_35:\n      pop\n      tag_36\n      tag_37\n      jump\t// in\n    tag_36:\n      mload(0x40)\n      tag_38\n      swap2\n      swap1\n      tag_34\n      jump\t// in\n    tag_38:\n      mload(0x40)\n      dup1\n      swap2\n      sub\n      swap1\n      return\n        /* \"contracts/lottery.sol\":1153:1318  function transfermoney() public {... */\n    tag_7:\n      callvalue\n      dup1\n      iszero\n      tag_39\n      jumpi\n      0x00\n      dup1\n      revert\n    tag_39:\n      pop\n      tag_40\n      tag_41\n      jump\t// in\n    tag_40:\n      stop\n        /* \"contracts/lottery.sol\":1324:1402  function reset() public {... */\n    tag_8:\n      callvalue\n      dup1\n      iszero\n      tag_42\n      jumpi\n      0x00\n      dup1\n      revert\n    tag_42:\n      pop\n      tag_43\n      tag_44\n      jump\t// in\n    tag_43:\n      stop\n        /* \"contracts/lottery.sol\":821:1147  function selectwinner() public view returns (address){... */\n    tag_9:\n      callvalue\n      dup1\n      iszero\n      tag_45\n      jumpi\n      0x00\n      dup1\n      revert\n    tag_45:\n      pop\n      tag_46\n      tag_47\n      jump\t// in\n    tag_46:\n      mload(0x40)\n      tag_48\n      swap2\n      swap1\n      tag_29\n      jump\t// in\n    tag_48:\n      mload(0x40)\n      dup1\n      swap2\n      sub\n      swap1\n      return\n        /* \"contracts/lottery.sol\":128:165  address payable[] public participants */\n    tag_22:\n      0x01\n      dup2\n      dup2\n      sload\n      dup2\n      lt\n      tag_49\n      jumpi\n      0x00\n      dup1\n      revert\n    tag_49:\n      swap1\n      0x00\n      mstore\n      keccak256(0x00, 0x20)\n      add\n      0x00\n      swap2\n      pop\n      sload\n      swap1\n      0x0100\n      exp\n      swap1\n      div\n      0xffffffffffffffffffffffffffffffffffffffff\n      and\n      dup2\n      jump\t// out\n        /* \"contracts/lottery.sol\":99:121  address public manager */\n    tag_27:\n      0x00\n      dup1\n      sload\n      swap1\n      0x0100\n      exp\n      swap1\n      div\n      0xffffffffffffffffffffffffffffffffffffffff\n      and\n      dup2\n      jump\t// out\n        /* \"contracts/lottery.sol\":451:621  function getbalance() public  view returns(uint)... */\n    tag_32:\n        /* \"contracts/lottery.sol\":494:498  uint */\n      0x00\n        /* \"contracts/lottery.sol\":540:547  manager */\n      dup1\n      0x00\n      swap1\n      sload\n      swap1\n      0x0100\n      exp\n      swap1\n      div\n      0xffffffffffffffffffffffffffffffffffffffff\n      and\n        /* \"contracts/lottery.sol\":528:547  msg.sender==manager */\n      0xffffffffffffffffffffffffffffffffffffffff\n      and\n        /* \"contracts/lottery.sol\":528:538  msg.sender */\n      caller\n        /* \"contracts/lottery.sol\":528:547  msg.sender==manager */\n      0xffffffffffffffffffffffffffffffffffffffff\n      and\n      eq\n        /* \"contracts/lottery.sol\":520:573  require(msg.sender==manager, \"You are not the owner\") */\n      tag_52\n      jumpi\n      mload(0x40)\n      0x08c379a000000000000000000000000000000000000000000000000000000000\n      dup2\n      mstore\n      0x04\n      add\n      tag_53\n      swap1\n      tag_54\n      jump\t// in\n    tag_53:\n      mload(0x40)\n      dup1\n      swap2\n      sub\n      swap1\n      revert\n    tag_52:\n        /* \"contracts/lottery.sol\":592:613  address(this).balance */\n      selfbalance\n        /* \"contracts/lottery.sol\":584:613  return  address(this).balance */\n      swap1\n      pop\n        /* \"contracts/lottery.sol\":451:621  function getbalance() public  view returns(uint)... */\n      swap1\n      jump\t// out\n        /* \"contracts/lottery.sol\":654:811  function random() public view returns (uint){... */\n    tag_37:\n        /* \"contracts/lottery.sol\":693:697  uint */\n      0x00\n        /* \"contracts/lottery.sol\":748:764  block.difficulty */\n      prevrandao\n        /* \"contracts/lottery.sol\":765:780  block.timestamp */\n      timestamp\n        /* \"contracts/lottery.sol\":781:793  participants */\n      0x01\n        /* \"contracts/lottery.sol\":781:800  participants.length */\n      dup1\n      sload\n      swap1\n      pop\n        /* \"contracts/lottery.sol\":731:801  abi.encodePacked(block.difficulty,block.timestamp,participants.length) */\n      add(0x20, mload(0x40))\n      tag_56\n      swap4\n      swap3\n      swap2\n      swap1\n      tag_57\n      jump\t// in\n    tag_56:\n      mload(0x40)\n      0x20\n      dup2\n      dup4\n      sub\n      sub\n      dup2\n      mstore\n      swap1\n      0x40\n      mstore\n        /* \"contracts/lottery.sol\":721:802  keccak256(abi.encodePacked(block.difficulty,block.timestamp,participants.length)) */\n      dup1\n      mload\n      swap1\n      0x20\n      add\n      keccak256\n        /* \"contracts/lottery.sol\":714:803  uint(  keccak256(abi.encodePacked(block.difficulty,block.timestamp,participants.length))) */\n      0x00\n      shr\n        /* \"contracts/lottery.sol\":707:803  return uint(  keccak256(abi.encodePacked(block.difficulty,block.timestamp,participants.length))) */\n      swap1\n      pop\n        /* \"contracts/lottery.sol\":654:811  function random() public view returns (uint){... */\n      swap1\n      jump\t// out\n        /* \"contracts/lottery.sol\":1153:1318  function transfermoney() public {... */\n    tag_41:\n        /* \"contracts/lottery.sol\":1212:1219  manager */\n      0x00\n      dup1\n      sload\n      swap1\n      0x0100\n      exp\n      swap1\n      div\n      0xffffffffffffffffffffffffffffffffffffffff\n      and\n        /* \"contracts/lottery.sol\":1200:1219  msg.sender==manager */\n      0xffffffffffffffffffffffffffffffffffffffff\n      and\n        /* \"contracts/lottery.sol\":1200:1210  msg.sender */\n      caller\n        /* \"contracts/lottery.sol\":1200:1219  msg.sender==manager */\n      0xffffffffffffffffffffffffffffffffffffffff\n      and\n      eq\n        /* \"contracts/lottery.sol\":1192:1220  require(msg.sender==manager) */\n      tag_59\n      jumpi\n      0x00\n      dup1\n      revert\n    tag_59:\n        /* \"contracts/lottery.sol\":1227:1247  address payable  win */\n      0x00\n        /* \"contracts/lottery.sol\":1259:1273  selectwinner() */\n      tag_60\n        /* \"contracts/lottery.sol\":1259:1271  selectwinner */\n      tag_47\n        /* \"contracts/lottery.sol\":1259:1273  selectwinner() */\n      jump\t// in\n    tag_60:\n        /* \"contracts/lottery.sol\":1227:1274  address payable  win= payable  (selectwinner()) */\n      swap1\n      pop\n        /* \"contracts/lottery.sol\":1281:1284  win */\n      dup1\n        /* \"contracts/lottery.sol\":1281:1293  win.transfer */\n      0xffffffffffffffffffffffffffffffffffffffff\n      and\n        /* \"contracts/lottery.sol\":1281:1310  win.transfer(getbalance()/20) */\n      0x08fc\n        /* \"contracts/lottery.sol\":1307:1309  20 */\n      0x14\n        /* \"contracts/lottery.sol\":1294:1306  getbalance() */\n      tag_61\n        /* \"contracts/lottery.sol\":1294:1304  getbalance */\n      tag_32\n        /* \"contracts/lottery.sol\":1294:1306  getbalance() */\n      jump\t// in\n    tag_61:\n        /* \"contracts/lottery.sol\":1294:1309  getbalance()/20 */\n      tag_62\n      swap2\n      swap1\n      tag_63\n      jump\t// in\n    tag_62:\n        /* \"contracts/lottery.sol\":1281:1310  win.transfer(getbalance()/20) */\n      swap1\n      dup2\n      iszero\n      mul\n      swap1\n      mload(0x40)\n      0x00\n      mload(0x40)\n      dup1\n      dup4\n      sub\n      dup2\n      dup6\n      dup9\n      dup9\n      call\n      swap4\n      pop\n      pop\n      pop\n      pop\n      iszero\n      dup1\n      iszero\n      tag_65\n      jumpi\n      returndatasize\n      0x00\n      dup1\n      returndatacopy\n      revert(0x00, returndatasize)\n    tag_65:\n      pop\n        /* \"contracts/lottery.sol\":1185:1318  {... */\n      pop\n        /* \"contracts/lottery.sol\":1153:1318  function transfermoney() public {... */\n      jump\t// out\n        /* \"contracts/lottery.sol\":1324:1402  function reset() public {... */\n    tag_44:\n        /* \"contracts/lottery.sol\":1394:1395  0 */\n      0x00\n        /* \"contracts/lottery.sol\":1372:1396  new address payable[](0) */\n      0xffffffffffffffff\n      dup2\n      gt\n      iszero\n      tag_67\n      jumpi\n      tag_68\n      tag_69\n      jump\t// in\n    tag_68:\n    tag_67:\n      mload(0x40)\n      swap1\n      dup1\n      dup3\n      mstore\n      dup1\n      0x20\n      mul\n      0x20\n      add\n      dup3\n      add\n      0x40\n      mstore\n      dup1\n      iszero\n      tag_70\n      jumpi\n      dup2\n      0x20\n      add\n      0x20\n      dup3\n      mul\n      dup1\n      calldatasize\n      dup4\n      calldatacopy\n      dup1\n      dup3\n      add\n      swap2\n      pop\n      pop\n      swap1\n      pop\n    tag_70:\n      pop\n        /* \"contracts/lottery.sol\":1359:1371  participants */\n      0x01\n        /* \"contracts/lottery.sol\":1359:1396  participants=new address payable[](0) */\n      swap1\n      dup1\n      mload\n      swap1\n      0x20\n      add\n      swap1\n      tag_71\n      swap3\n      swap2\n      swap1\n      tag_72\n      jump\t// in\n    tag_71:\n      pop\n        /* \"contracts/lottery.sol\":1324:1402  function reset() public {... */\n      jump\t// out\n        /* \"contracts/lottery.sol\":821:1147  function selectwinner() public view returns (address){... */\n    tag_47:\n        /* \"contracts/lottery.sol\":866:873  address */\n      0x00\n        /* \"contracts/lottery.sol\":904:911  manager */\n      dup1\n      0x00\n      swap1\n      sload\n      swap1\n      0x0100\n      exp\n      swap1\n      div\n      0xffffffffffffffffffffffffffffffffffffffff\n      and\n        /* \"contracts/lottery.sol\":892:911  msg.sender==manager */\n      0xffffffffffffffffffffffffffffffffffffffff\n      and\n        /* \"contracts/lottery.sol\":892:902  msg.sender */\n      caller\n        /* \"contracts/lottery.sol\":892:911  msg.sender==manager */\n      0xffffffffffffffffffffffffffffffffffffffff\n      and\n      eq\n        /* \"contracts/lottery.sol\":884:938  require(msg.sender==manager,\"you are not the manager\") */\n      tag_74\n      jumpi\n      mload(0x40)\n      0x08c379a000000000000000000000000000000000000000000000000000000000\n      dup2\n      mstore\n      0x04\n      add\n      tag_75\n      swap1\n      tag_76\n      jump\t// in\n    tag_75:\n      mload(0x40)\n      dup1\n      swap2\n      sub\n      swap1\n      revert\n    tag_74:\n        /* \"contracts/lottery.sol\":977:978  3 */\n      0x03\n        /* \"contracts/lottery.sol\":956:968  participants */\n      0x01\n        /* \"contracts/lottery.sol\":956:975  participants.length */\n      dup1\n      sload\n      swap1\n      pop\n        /* \"contracts/lottery.sol\":956:978  participants.length>=3 */\n      lt\n      iszero\n        /* \"contracts/lottery.sol\":948:979  require(participants.length>=3) */\n      tag_77\n      jumpi\n      0x00\n      dup1\n      revert\n    tag_77:\n        /* \"contracts/lottery.sol\":989:995  uint r */\n      0x00\n        /* \"contracts/lottery.sol\":996:1004  random() */\n      tag_78\n        /* \"contracts/lottery.sol\":996:1002  random */\n      tag_37\n        /* \"contracts/lottery.sol\":996:1004  random() */\n      jump\t// in\n    tag_78:\n        /* \"contracts/lottery.sol\":989:1004  uint r=random() */\n      swap1\n      pop\n        /* \"contracts/lottery.sol\":1014:1036  address payable winner */\n      0x00\n        /* \"contracts/lottery.sol\":1046:1056  uint index */\n      dup1\n        /* \"contracts/lottery.sol\":1060:1072  participants */\n      0x01\n        /* \"contracts/lottery.sol\":1060:1079  participants.length */\n      dup1\n      sload\n      swap1\n      pop\n        /* \"contracts/lottery.sol\":1057:1058  r */\n      dup4\n        /* \"contracts/lottery.sol\":1057:1079  r% participants.length */\n      tag_79\n      swap2\n      swap1\n      tag_80\n      jump\t// in\n    tag_79:\n        /* \"contracts/lottery.sol\":1046:1079  uint index=r% participants.length */\n      swap1\n      pop\n        /* \"contracts/lottery.sol\":1096:1108  participants */\n      0x01\n        /* \"contracts/lottery.sol\":1109:1114  index */\n      dup2\n        /* \"contracts/lottery.sol\":1096:1115  participants[index] */\n      dup2\n      sload\n      dup2\n      lt\n      tag_81\n      jumpi\n      tag_82\n      tag_83\n      jump\t// in\n    tag_82:\n    tag_81:\n      swap1\n      0x00\n      mstore\n      keccak256(0x00, 0x20)\n      add\n      0x00\n      swap1\n      sload\n      swap1\n      0x0100\n      exp\n      swap1\n      div\n      0xffffffffffffffffffffffffffffffffffffffff\n      and\n        /* \"contracts/lottery.sol\":1089:1115  winner=participants[index] */\n      swap2\n      pop\n        /* \"contracts/lottery.sol\":1132:1138  winner */\n      dup2\n        /* \"contracts/lottery.sol\":1125:1138  return winner */\n      swap4\n      pop\n      pop\n      pop\n      pop\n        /* \"contracts/lottery.sol\":821:1147  function selectwinner() public view returns (address){... */\n      swap1\n      jump\t// out\n    tag_72:\n      dup3\n      dup1\n      sload\n      dup3\n      dup3\n      sstore\n      swap1\n      0x00\n      mstore\n      keccak256(0x00, 0x20)\n      swap1\n      dup2\n      add\n      swap3\n      dup3\n      iszero\n      tag_85\n      jumpi\n      swap2\n      0x20\n      mul\n      dup3\n      add\n    tag_86:\n      dup3\n      dup2\n      gt\n      iszero\n      tag_87\n      jumpi\n      dup3\n      mload\n      dup3\n      exp(0x0100, 0x00)\n      dup2\n      sload\n      dup2\n      0xffffffffffffffffffffffffffffffffffffffff\n      mul\n      not\n      and\n      swap1\n      dup4\n      0xffffffffffffffffffffffffffffffffffffffff\n      and\n      mul\n      or\n      swap1\n      sstore\n      pop\n      swap2\n      0x20\n      add\n      swap2\n      swap1\n      0x01\n      add\n      swap1\n      jump(tag_86)\n    tag_87:\n    tag_85:\n      pop\n      swap1\n      pop\n      tag_88\n      swap2\n      swap1\n      tag_89\n      jump\t// in\n    tag_88:\n      pop\n      swap1\n      jump\t// out\n    tag_89:\n    tag_90:\n      dup1\n      dup3\n      gt\n      iszero\n      tag_91\n      jumpi\n      0x00\n      dup2\n      0x00\n      swap1\n      sstore\n      pop\n      0x01\n      add\n      jump(tag_90)\n    tag_91:\n      pop\n      swap1\n      jump\t// out\n        /* \"#utility.yul\":7:176   */\n    tag_92:\n        /* \"#utility.yul\":91:102   */\n      0x00\n        /* \"#utility.yul\":125:131   */\n      dup3\n        /* \"#utility.yul\":120:123   */\n      dup3\n        /* \"#utility.yul\":113:132   */\n      mstore\n        /* \"#utility.yul\":165:169   */\n      0x20\n        /* \"#utility.yul\":160:163   */\n      dup3\n        /* \"#utility.yul\":156:170   */\n      add\n        /* \"#utility.yul\":141:170   */\n      swap1\n      pop\n        /* \"#utility.yul\":7:176   */\n      swap3\n      swap2\n      pop\n      pop\n      jump\t// out\n        /* \"#utility.yul\":182:362   */\n    tag_93:\n        /* \"#utility.yul\":322:354   */\n      0x506c6561736520676976652073756666696369656e742062616c616e63650000\n        /* \"#utility.yul\":318:319   */\n      0x00\n        /* \"#utility.yul\":310:316   */\n      dup3\n        /* \"#utility.yul\":306:320   */\n      add\n        /* \"#utility.yul\":299:355   */\n      mstore\n        /* \"#utility.yul\":182:362   */\n      pop\n      jump\t// out\n        /* \"#utility.yul\":368:734   */\n    tag_94:\n        /* \"#utility.yul\":510:513   */\n      0x00\n        /* \"#utility.yul\":531:598   */\n      tag_119\n        /* \"#utility.yul\":595:597   */\n      0x1e\n        /* \"#utility.yul\":590:593   */\n      dup4\n        /* \"#utility.yul\":531:598   */\n      tag_92\n      jump\t// in\n    tag_119:\n        /* \"#utility.yul\":524:598   */\n      swap2\n      pop\n        /* \"#utility.yul\":607:700   */\n      tag_120\n        /* \"#utility.yul\":696:699   */\n      dup3\n        /* \"#utility.yul\":607:700   */\n      tag_93\n      jump\t// in\n    tag_120:\n        /* \"#utility.yul\":725:727   */\n      0x20\n        /* \"#utility.yul\":720:723   */\n      dup3\n        /* \"#utility.yul\":716:728   */\n      add\n        /* \"#utility.yul\":709:728   */\n      swap1\n      pop\n        /* \"#utility.yul\":368:734   */\n      swap2\n      swap1\n      pop\n      jump\t// out\n        /* \"#utility.yul\":740:1159   */\n    tag_15:\n        /* \"#utility.yul\":906:910   */\n      0x00\n        /* \"#utility.yul\":944:946   */\n      0x20\n        /* \"#utility.yul\":933:942   */\n      dup3\n        /* \"#utility.yul\":929:947   */\n      add\n        /* \"#utility.yul\":921:947   */\n      swap1\n      pop\n        /* \"#utility.yul\":993:1002   */\n      dup2\n        /* \"#utility.yul\":987:991   */\n      dup2\n        /* \"#utility.yul\":983:1003   */\n      sub\n        /* \"#utility.yul\":979:980   */\n      0x00\n        /* \"#utility.yul\":968:977   */\n      dup4\n        /* \"#utility.yul\":964:981   */\n      add\n        /* \"#utility.yul\":957:1004   */\n      mstore\n        /* \"#utility.yul\":1021:1152   */\n      tag_122\n        /* \"#utility.yul\":1147:1151   */\n      dup2\n        /* \"#utility.yul\":1021:1152   */\n      tag_94\n      jump\t// in\n    tag_122:\n        /* \"#utility.yul\":1013:1152   */\n      swap1\n      pop\n        /* \"#utility.yul\":740:1159   */\n      swap2\n      swap1\n      pop\n      jump\t// out\n        /* \"#utility.yul\":1246:1363   */\n    tag_96:\n        /* \"#utility.yul\":1355:1356   */\n      0x00\n        /* \"#utility.yul\":1352:1353   */\n      dup1\n        /* \"#utility.yul\":1345:1357   */\n      revert\n        /* \"#utility.yul\":1492:1569   */\n    tag_98:\n        /* \"#utility.yul\":1529:1536   */\n      0x00\n        /* \"#utility.yul\":1558:1563   */\n      dup2\n        /* \"#utility.yul\":1547:1563   */\n      swap1\n      pop\n        /* \"#utility.yul\":1492:1569   */\n      swap2\n      swap1\n      pop\n      jump\t// out\n        /* \"#utility.yul\":1575:1697   */\n    tag_99:\n        /* \"#utility.yul\":1648:1672   */\n      tag_128\n        /* \"#utility.yul\":1666:1671   */\n      dup2\n        /* \"#utility.yul\":1648:1672   */\n      tag_98\n      jump\t// in\n    tag_128:\n        /* \"#utility.yul\":1641:1646   */\n      dup2\n        /* \"#utility.yul\":1638:1673   */\n      eq\n        /* \"#utility.yul\":1628:1691   */\n      tag_129\n      jumpi\n        /* \"#utility.yul\":1687:1688   */\n      0x00\n        /* \"#utility.yul\":1684:1685   */\n      dup1\n        /* \"#utility.yul\":1677:1689   */\n      revert\n        /* \"#utility.yul\":1628:1691   */\n    tag_129:\n        /* \"#utility.yul\":1575:1697   */\n      pop\n      jump\t// out\n        /* \"#utility.yul\":1703:1842   */\n    tag_100:\n        /* \"#utility.yul\":1749:1754   */\n      0x00\n        /* \"#utility.yul\":1787:1793   */\n      dup2\n        /* \"#utility.yul\":1774:1794   */\n      calldataload\n        /* \"#utility.yul\":1765:1794   */\n      swap1\n      pop\n        /* \"#utility.yul\":1803:1836   */\n      tag_131\n        /* \"#utility.yul\":1830:1835   */\n      dup2\n        /* \"#utility.yul\":1803:1836   */\n      tag_99\n      jump\t// in\n    tag_131:\n        /* \"#utility.yul\":1703:1842   */\n      swap3\n      swap2\n      pop\n      pop\n      jump\t// out\n        /* \"#utility.yul\":1848:2177   */\n    tag_21:\n        /* \"#utility.yul\":1907:1913   */\n      0x00\n        /* \"#utility.yul\":1956:1958   */\n      0x20\n        /* \"#utility.yul\":1944:1953   */\n      dup3\n        /* \"#utility.yul\":1935:1942   */\n      dup5\n        /* \"#utility.yul\":1931:1954   */\n      sub\n        /* \"#utility.yul\":1927:1959   */\n      slt\n        /* \"#utility.yul\":1924:2043   */\n      iszero\n      tag_133\n      jumpi\n        /* \"#utility.yul\":1962:2041   */\n      tag_134\n      tag_96\n      jump\t// in\n    tag_134:\n        /* \"#utility.yul\":1924:2043   */\n    tag_133:\n        /* \"#utility.yul\":2082:2083   */\n      0x00\n        /* \"#utility.yul\":2107:2160   */\n      tag_135\n        /* \"#utility.yul\":2152:2159   */\n      dup5\n        /* \"#utility.yul\":2143:2149   */\n      dup3\n        /* \"#utility.yul\":2132:2141   */\n      dup6\n        /* \"#utility.yul\":2128:2150   */\n      add\n        /* \"#utility.yul\":2107:2160   */\n      tag_100\n      jump\t// in\n    tag_135:\n        /* \"#utility.yul\":2097:2160   */\n      swap2\n      pop\n        /* \"#utility.yul\":2053:2170   */\n      pop\n        /* \"#utility.yul\":1848:2177   */\n      swap3\n      swap2\n      pop\n      pop\n      jump\t// out\n        /* \"#utility.yul\":2183:2309   */\n    tag_101:\n        /* \"#utility.yul\":2220:2227   */\n      0x00\n        /* \"#utility.yul\":2260:2302   */\n      0xffffffffffffffffffffffffffffffffffffffff\n        /* \"#utility.yul\":2253:2258   */\n      dup3\n        /* \"#utility.yul\":2249:2303   */\n      and\n        /* \"#utility.yul\":2238:2303   */\n      swap1\n      pop\n        /* \"#utility.yul\":2183:2309   */\n      swap2\n      swap1\n      pop\n      jump\t// out\n        /* \"#utility.yul\":2315:2419   */\n    tag_102:\n        /* \"#utility.yul\":2360:2367   */\n      0x00\n        /* \"#utility.yul\":2389:2413   */\n      tag_138\n        /* \"#utility.yul\":2407:2412   */\n      dup3\n        /* \"#utility.yul\":2389:2413   */\n      tag_101\n      jump\t// in\n    tag_138:\n        /* \"#utility.yul\":2378:2413   */\n      swap1\n      pop\n        /* \"#utility.yul\":2315:2419   */\n      swap2\n      swap1\n      pop\n      jump\t// out\n        /* \"#utility.yul\":2425:2567   */\n    tag_103:\n        /* \"#utility.yul\":2528:2560   */\n      tag_140\n        /* \"#utility.yul\":2554:2559   */\n      dup2\n        /* \"#utility.yul\":2528:2560   */\n      tag_102\n      jump\t// in\n    tag_140:\n        /* \"#utility.yul\":2523:2526   */\n      dup3\n        /* \"#utility.yul\":2516:2561   */\n      mstore\n        /* \"#utility.yul\":2425:2567   */\n      pop\n      pop\n      jump\t// out\n        /* \"#utility.yul\":2573:2827   */\n    tag_24:\n        /* \"#utility.yul\":2682:2686   */\n      0x00\n        /* \"#utility.yul\":2720:2722   */\n      0x20\n        /* \"#utility.yul\":2709:2718   */\n      dup3\n        /* \"#utility.yul\":2705:2723   */\n      add\n        /* \"#utility.yul\":2697:2723   */\n      swap1\n      pop\n        /* \"#utility.yul\":2733:2820   */\n      tag_142\n        /* \"#utility.yul\":2817:2818   */\n      0x00\n        /* \"#utility.yul\":2806:2815   */\n      dup4\n        /* \"#utility.yul\":2802:2819   */\n      add\n        /* \"#utility.yul\":2793:2799   */\n      dup5\n        /* \"#utility.yul\":2733:2820   */\n      tag_103\n      jump\t// in\n    tag_142:\n        /* \"#utility.yul\":2573:2827   */\n      swap3\n      swap2\n      pop\n      pop\n      jump\t// out\n        /* \"#utility.yul\":2833:2929   */\n    tag_104:\n        /* \"#utility.yul\":2870:2877   */\n      0x00\n        /* \"#utility.yul\":2899:2923   */\n      tag_144\n        /* \"#utility.yul\":2917:2922   */\n      dup3\n        /* \"#utility.yul\":2899:2923   */\n      tag_101\n      jump\t// in\n    tag_144:\n        /* \"#utility.yul\":2888:2923   */\n      swap1\n      pop\n        /* \"#utility.yul\":2833:2929   */\n      swap2\n      swap1\n      pop\n      jump\t// out\n        /* \"#utility.yul\":2935:3053   */\n    tag_105:\n        /* \"#utility.yul\":3022:3046   */\n      tag_146\n        /* \"#utility.yul\":3040:3045   */\n      dup2\n        /* \"#utility.yul\":3022:3046   */\n      tag_104\n      jump\t// in\n    tag_146:\n        /* \"#utility.yul\":3017:3020   */\n      dup3\n        /* \"#utility.yul\":3010:3047   */\n      mstore\n        /* \"#utility.yul\":2935:3053   */\n      pop\n      pop\n      jump\t// out\n        /* \"#utility.yul\":3059:3281   */\n    tag_29:\n        /* \"#utility.yul\":3152:3156   */\n      0x00\n        /* \"#utility.yul\":3190:3192   */\n      0x20\n        /* \"#utility.yul\":3179:3188   */\n      dup3\n        /* \"#utility.yul\":3175:3193   */\n      add\n        /* \"#utility.yul\":3167:3193   */\n      swap1\n      pop\n        /* \"#utility.yul\":3203:3274   */\n      tag_148\n        /* \"#utility.yul\":3271:3272   */\n      0x00\n        /* \"#utility.yul\":3260:3269   */\n      dup4\n        /* \"#utility.yul\":3256:3273   */\n      add\n        /* \"#utility.yul\":3247:3253   */\n      dup5\n        /* \"#utility.yul\":3203:3274   */\n      tag_105\n      jump\t// in\n    tag_148:\n        /* \"#utility.yul\":3059:3281   */\n      swap3\n      swap2\n      pop\n      pop\n      jump\t// out\n        /* \"#utility.yul\":3287:3405   */\n    tag_106:\n        /* \"#utility.yul\":3374:3398   */\n      tag_150\n        /* \"#utility.yul\":3392:3397   */\n      dup2\n        /* \"#utility.yul\":3374:3398   */\n      tag_98\n      jump\t// in\n    tag_150:\n        /* \"#utility.yul\":3369:3372   */\n      dup3\n        /* \"#utility.yul\":3362:3399   */\n      mstore\n        /* \"#utility.yul\":3287:3405   */\n      pop\n      pop\n      jump\t// out\n        /* \"#utility.yul\":3411:3633   */\n    tag_34:\n        /* \"#utility.yul\":3504:3508   */\n      0x00\n        /* \"#utility.yul\":3542:3544   */\n      0x20\n        /* \"#utility.yul\":3531:3540   */\n      dup3\n        /* \"#utility.yul\":3527:3545   */\n      add\n        /* \"#utility.yul\":3519:3545   */\n      swap1\n      pop\n        /* \"#utility.yul\":3555:3626   */\n      tag_152\n        /* \"#utility.yul\":3623:3624   */\n      0x00\n        /* \"#utility.yul\":3612:3621   */\n      dup4\n        /* \"#utility.yul\":3608:3625   */\n      add\n        /* \"#utility.yul\":3599:3605   */\n      dup5\n        /* \"#utility.yul\":3555:3626   */\n      tag_106\n      jump\t// in\n    tag_152:\n        /* \"#utility.yul\":3411:3633   */\n      swap3\n      swap2\n      pop\n      pop\n      jump\t// out\n        /* \"#utility.yul\":3639:3810   */\n    tag_107:\n        /* \"#utility.yul\":3779:3802   */\n      0x596f7520617265206e6f7420746865206f776e65720000000000000000000000\n        /* \"#utility.yul\":3775:3776   */\n      0x00\n        /* \"#utility.yul\":3767:3773   */\n      dup3\n        /* \"#utility.yul\":3763:3777   */\n      add\n        /* \"#utility.yul\":3756:3803   */\n      mstore\n        /* \"#utility.yul\":3639:3810   */\n      pop\n      jump\t// out\n        /* \"#utility.yul\":3816:4182   */\n    tag_108:\n        /* \"#utility.yul\":3958:3961   */\n      0x00\n        /* \"#utility.yul\":3979:4046   */\n      tag_155\n        /* \"#utility.yul\":4043:4045   */\n      0x15\n        /* \"#utility.yul\":4038:4041   */\n      dup4\n        /* \"#utility.yul\":3979:4046   */\n      tag_92\n      jump\t// in\n    tag_155:\n        /* \"#utility.yul\":3972:4046   */\n      swap2\n      pop\n        /* \"#utility.yul\":4055:4148   */\n      tag_156\n        /* \"#utility.yul\":4144:4147   */\n      dup3\n        /* \"#utility.yul\":4055:4148   */\n      tag_107\n      jump\t// in\n    tag_156:\n        /* \"#utility.yul\":4173:4175   */\n      0x20\n        /* \"#utility.yul\":4168:4171   */\n      dup3\n        /* \"#utility.yul\":4164:4176   */\n      add\n        /* \"#utility.yul\":4157:4176   */\n      swap1\n      pop\n        /* \"#utility.yul\":3816:4182   */\n      swap2\n      swap1\n      pop\n      jump\t// out\n        /* \"#utility.yul\":4188:4607   */\n    tag_54:\n        /* \"#utility.yul\":4354:4358   */\n      0x00\n        /* \"#utility.yul\":4392:4394   */\n      0x20\n        /* \"#utility.yul\":4381:4390   */\n      dup3\n        /* \"#utility.yul\":4377:4395   */\n      add\n        /* \"#utility.yul\":4369:4395   */\n      swap1\n      pop\n        /* \"#utility.yul\":4441:4450   */\n      dup2\n        /* \"#utility.yul\":4435:4439   */\n      dup2\n        /* \"#utility.yul\":4431:4451   */\n      sub\n        /* \"#utility.yul\":4427:4428   */\n      0x00\n        /* \"#utility.yul\":4416:4425   */\n      dup4\n        /* \"#utility.yul\":4412:4429   */\n      add\n        /* \"#utility.yul\":4405:4452   */\n      mstore\n        /* \"#utility.yul\":4469:4600   */\n      tag_158\n        /* \"#utility.yul\":4595:4599   */\n      dup2\n        /* \"#utility.yul\":4469:4600   */\n      tag_108\n      jump\t// in\n    tag_158:\n        /* \"#utility.yul\":4461:4600   */\n      swap1\n      pop\n        /* \"#utility.yul\":4188:4607   */\n      swap2\n      swap1\n      pop\n      jump\t// out\n        /* \"#utility.yul\":4613:4692   */\n    tag_109:\n        /* \"#utility.yul\":4652:4659   */\n      0x00\n        /* \"#utility.yul\":4681:4686   */\n      dup2\n        /* \"#utility.yul\":4670:4686   */\n      swap1\n      pop\n        /* \"#utility.yul\":4613:4692   */\n      swap2\n      swap1\n      pop\n      jump\t// out\n        /* \"#utility.yul\":4698:4855   */\n    tag_110:\n        /* \"#utility.yul\":4803:4848   */\n      tag_161\n        /* \"#utility.yul\":4823:4847   */\n      tag_162\n        /* \"#utility.yul\":4841:4846   */\n      dup3\n        /* \"#utility.yul\":4823:4847   */\n      tag_98\n      jump\t// in\n    tag_162:\n        /* \"#utility.yul\":4803:4848   */\n      tag_109\n      jump\t// in\n    tag_161:\n        /* \"#utility.yul\":4798:4801   */\n      dup3\n        /* \"#utility.yul\":4791:4849   */\n      mstore\n        /* \"#utility.yul\":4698:4855   */\n      pop\n      pop\n      jump\t// out\n        /* \"#utility.yul\":4861:5399   */\n    tag_57:\n        /* \"#utility.yul\":5029:5032   */\n      0x00\n        /* \"#utility.yul\":5044:5119   */\n      tag_164\n        /* \"#utility.yul\":5115:5118   */\n      dup3\n        /* \"#utility.yul\":5106:5112   */\n      dup7\n        /* \"#utility.yul\":5044:5119   */\n      tag_110\n      jump\t// in\n    tag_164:\n        /* \"#utility.yul\":5144:5146   */\n      0x20\n        /* \"#utility.yul\":5139:5142   */\n      dup3\n        /* \"#utility.yul\":5135:5147   */\n      add\n        /* \"#utility.yul\":5128:5147   */\n      swap2\n      pop\n        /* \"#utility.yul\":5157:5232   */\n      tag_165\n        /* \"#utility.yul\":5228:5231   */\n      dup3\n        /* \"#utility.yul\":5219:5225   */\n      dup6\n        /* \"#utility.yul\":5157:5232   */\n      tag_110\n      jump\t// in\n    tag_165:\n        /* \"#utility.yul\":5257:5259   */\n      0x20\n        /* \"#utility.yul\":5252:5255   */\n      dup3\n        /* \"#utility.yul\":5248:5260   */\n      add\n        /* \"#utility.yul\":5241:5260   */\n      swap2\n      pop\n        /* \"#utility.yul\":5270:5345   */\n      tag_166\n        /* \"#utility.yul\":5341:5344   */\n      dup3\n        /* \"#utility.yul\":5332:5338   */\n      dup5\n        /* \"#utility.yul\":5270:5345   */\n      tag_110\n      jump\t// in\n    tag_166:\n        /* \"#utility.yul\":5370:5372   */\n      0x20\n        /* \"#utility.yul\":5365:5368   */\n      dup3\n        /* \"#utility.yul\":5361:5373   */\n      add\n        /* \"#utility.yul\":5354:5373   */\n      swap2\n      pop\n        /* \"#utility.yul\":5390:5393   */\n      dup2\n        /* \"#utility.yul\":5383:5393   */\n      swap1\n      pop\n        /* \"#utility.yul\":4861:5399   */\n      swap5\n      swap4\n      pop\n      pop\n      pop\n      pop\n      jump\t// out\n        /* \"#utility.yul\":5405:5585   */\n    tag_111:\n        /* \"#utility.yul\":5453:5530   */\n      0x4e487b7100000000000000000000000000000000000000000000000000000000\n        /* \"#utility.yul\":5450:5451   */\n      0x00\n        /* \"#utility.yul\":5443:5531   */\n      mstore\n        /* \"#utility.yul\":5550:5554   */\n      0x12\n        /* \"#utility.yul\":5547:5548   */\n      0x04\n        /* \"#utility.yul\":5540:5555   */\n      mstore\n        /* \"#utility.yul\":5574:5578   */\n      0x24\n        /* \"#utility.yul\":5571:5572   */\n      0x00\n        /* \"#utility.yul\":5564:5579   */\n      revert\n        /* \"#utility.yul\":5777:5962   */\n    tag_63:\n        /* \"#utility.yul\":5817:5818   */\n      0x00\n        /* \"#utility.yul\":5834:5854   */\n      tag_170\n        /* \"#utility.yul\":5852:5853   */\n      dup3\n        /* \"#utility.yul\":5834:5854   */\n      tag_98\n      jump\t// in\n    tag_170:\n        /* \"#utility.yul\":5829:5854   */\n      swap2\n      pop\n        /* \"#utility.yul\":5868:5888   */\n      tag_171\n        /* \"#utility.yul\":5886:5887   */\n      dup4\n        /* \"#utility.yul\":5868:5888   */\n      tag_98\n      jump\t// in\n    tag_171:\n        /* \"#utility.yul\":5863:5888   */\n      swap3\n      pop\n        /* \"#utility.yul\":5907:5908   */\n      dup3\n        /* \"#utility.yul\":5897:5932   */\n      tag_172\n      jumpi\n        /* \"#utility.yul\":5912:5930   */\n      tag_173\n      tag_111\n      jump\t// in\n    tag_173:\n        /* \"#utility.yul\":5897:5932   */\n    tag_172:\n        /* \"#utility.yul\":5954:5955   */\n      dup3\n        /* \"#utility.yul\":5951:5952   */\n      dup3\n        /* \"#utility.yul\":5947:5956   */\n      div\n        /* \"#utility.yul\":5942:5956   */\n      swap1\n      pop\n        /* \"#utility.yul\":5777:5962   */\n      swap3\n      swap2\n      pop\n      pop\n      jump\t// out\n        /* \"#utility.yul\":5968:6148   */\n    tag_69:\n        /* \"#utility.yul\":6016:6093   */\n      0x4e487b7100000000000000000000000000000000000000000000000000000000\n        /* \"#utility.yul\":6013:6014   */\n      0x00\n        /* \"#utility.yul\":6006:6094   */\n      mstore\n        /* \"#utility.yul\":6113:6117   */\n      0x41\n        /* \"#utility.yul\":6110:6111   */\n      0x04\n        /* \"#utility.yul\":6103:6118   */\n      mstore\n        /* \"#utility.yul\":6137:6141   */\n      0x24\n        /* \"#utility.yul\":6134:6135   */\n      0x00\n        /* \"#utility.yul\":6127:6142   */\n      revert\n        /* \"#utility.yul\":6154:6327   */\n    tag_113:\n        /* \"#utility.yul\":6294:6319   */\n      0x796f7520617265206e6f7420746865206d616e61676572000000000000000000\n        /* \"#utility.yul\":6290:6291   */\n      0x00\n        /* \"#utility.yul\":6282:6288   */\n      dup3\n        /* \"#utility.yul\":6278:6292   */\n      add\n        /* \"#utility.yul\":6271:6320   */\n      mstore\n        /* \"#utility.yul\":6154:6327   */\n      pop\n      jump\t// out\n        /* \"#utility.yul\":6333:6699   */\n    tag_114:\n        /* \"#utility.yul\":6475:6478   */\n      0x00\n        /* \"#utility.yul\":6496:6563   */\n      tag_177\n        /* \"#utility.yul\":6560:6562   */\n      0x17\n        /* \"#utility.yul\":6555:6558   */\n      dup4\n        /* \"#utility.yul\":6496:6563   */\n      tag_92\n      jump\t// in\n    tag_177:\n        /* \"#utility.yul\":6489:6563   */\n      swap2\n      pop\n        /* \"#utility.yul\":6572:6665   */\n      tag_178\n        /* \"#utility.yul\":6661:6664   */\n      dup3\n        /* \"#utility.yul\":6572:6665   */\n      tag_113\n      jump\t// in\n    tag_178:\n        /* \"#utility.yul\":6690:6692   */\n      0x20\n        /* \"#utility.yul\":6685:6688   */\n      dup3\n        /* \"#utility.yul\":6681:6693   */\n      add\n        /* \"#utility.yul\":6674:6693   */\n      swap1\n      pop\n        /* \"#utility.yul\":6333:6699   */\n      swap2\n      swap1\n      pop\n      jump\t// out\n        /* \"#utility.yul\":6705:7124   */\n    tag_76:\n        /* \"#utility.yul\":6871:6875   */\n      0x00\n        /* \"#utility.yul\":6909:6911   */\n      0x20\n        /* \"#utility.yul\":6898:6907   */\n      dup3\n        /* \"#utility.yul\":6894:6912   */\n      add\n        /* \"#utility.yul\":6886:6912   */\n      swap1\n      pop\n        /* \"#utility.yul\":6958:6967   */\n      dup2\n        /* \"#utility.yul\":6952:6956   */\n      dup2\n        /* \"#utility.yul\":6948:6968   */\n      sub\n        /* \"#utility.yul\":6944:6945   */\n      0x00\n        /* \"#utility.yul\":6933:6942   */\n      dup4\n        /* \"#utility.yul\":6929:6946   */\n      add\n        /* \"#utility.yul\":6922:6969   */\n      mstore\n        /* \"#utility.yul\":6986:7117   */\n      tag_180\n        /* \"#utility.yul\":7112:7116   */\n      dup2\n        /* \"#utility.yul\":6986:7117   */\n      tag_114\n      jump\t// in\n    tag_180:\n        /* \"#utility.yul\":6978:7117   */\n      swap1\n      pop\n        /* \"#utility.yul\":6705:7124   */\n      swap2\n      swap1\n      pop\n      jump\t// out\n        /* \"#utility.yul\":7130:7306   */\n    tag_80:\n        /* \"#utility.yul\":7162:7163   */\n      0x00\n        /* \"#utility.yul\":7179:7199   */\n      tag_182\n        /* \"#utility.yul\":7197:7198   */\n      dup3\n        /* \"#utility.yul\":7179:7199   */\n      tag_98\n      jump\t// in\n    tag_182:\n        /* \"#utility.yul\":7174:7199   */\n      swap2\n      pop\n        /* \"#utility.yul\":7213:7233   */\n      tag_183\n        /* \"#utility.yul\":7231:7232   */\n      dup4\n        /* \"#utility.yul\":7213:7233   */\n      tag_98\n      jump\t// in\n    tag_183:\n        /* \"#utility.yul\":7208:7233   */\n      swap3\n      pop\n        /* \"#utility.yul\":7252:7253   */\n      dup3\n        /* \"#utility.yul\":7242:7277   */\n      tag_184\n      jumpi\n        /* \"#utility.yul\":7257:7275   */\n      tag_185\n      tag_111\n      jump\t// in\n    tag_185:\n        /* \"#utility.yul\":7242:7277   */\n    tag_184:\n        /* \"#utility.yul\":7298:7299   */\n      dup3\n        /* \"#utility.yul\":7295:7296   */\n      dup3\n        /* \"#utility.yul\":7291:7300   */\n      mod\n        /* \"#utility.yul\":7286:7300   */\n      swap1\n      pop\n        /* \"#utility.yul\":7130:7306   */\n      swap3\n      swap2\n      pop\n      pop\n      jump\t// out\n        /* \"#utility.yul\":7312:7492   */\n    tag_83:\n        /* \"#utility.yul\":7360:7437   */\n      0x4e487b7100000000000000000000000000000000000000000000000000000000\n        /* \"#utility.yul\":7357:7358   */\n      0x00\n        /* \"#utility.yul\":7350:7438   */\n      mstore\n        /* \"#utility.yul\":7457:7461   */\n      0x32\n        /* \"#utility.yul\":7454:7455   */\n      0x04\n        /* \"#utility.yul\":7447:7462   */\n      mstore\n        /* \"#utility.yul\":7481:7485   */\n      0x24\n        /* \"#utility.yul\":7478:7479   */\n      0x00\n        /* \"#utility.yul\":7471:7486   */\n      revert\n\n    auxdata: 0xa2646970667358221220fb0f3bd8b42dbc31c9e677b9a89107fc08846de7caa98bbe1c1afe83b395fa6864736f6c63430008120033\n}\n",
				"bytecode": {
					"linkReferences": {},
					"object": "608060405234801561001057600080fd5b50336000806101000a81548173ffffffffffffffffffffffffffffffffffffffff021916908373ffffffffffffffffffffffffffffffffffffffff160217905550610aab806100606000396000f3fe6080604052600436106100745760003560e01c80635ec01e4d1161004e5780635ec01e4d14610217578063d1bb551b14610242578063d826f88f14610259578063f06e40ba146102705761017f565b806335c1d34914610184578063481c6a75146101c15780634d9b3d5d146101ec5761017f565b3661017f57671bc16d674ec8000034146100c3576040517f08c379a00000000000000000000000000000000000000000000000000000000081526004016100ba90610706565b60405180910390fd5b60008054906101000a900473ffffffffffffffffffffffffffffffffffffffff1673ffffffffffffffffffffffffffffffffffffffff163373ffffffffffffffffffffffffffffffffffffffff160361011b57600080fd5b6001339080600181540180825580915050600190039060005260206000200160009091909190916101000a81548173ffffffffffffffffffffffffffffffffffffffff021916908373ffffffffffffffffffffffffffffffffffffffff1602179055005b600080fd5b34801561019057600080fd5b506101ab60048036038101906101a69190610761565b61029b565b6040516101b891906107cf565b60405180910390f35b3480156101cd57600080fd5b506101d66102da565b6040516101e3919061080b565b60405180910390f35b3480156101f857600080fd5b506102016102fe565b60405161020e9190610835565b60405180910390f35b34801561022357600080fd5b5061022c610395565b6040516102399190610835565b60405180910390f35b34801561024e57600080fd5b506102576103cf565b005b34801561026557600080fd5b5061026e610490565b005b34801561027c57600080fd5b506102856104f2565b604051610292919061080b565b60405180910390f35b600181815481106102ab57600080fd5b906000526020600020016000915054906101000a900473ffffffffffffffffffffffffffffffffffffffff1681565b60008054906101000a900473ffffffffffffffffffffffffffffffffffffffff1681565b60008060009054906101000a900473ffffffffffffffffffffffffffffffffffffffff1673ffffffffffffffffffffffffffffffffffffffff163373ffffffffffffffffffffffffffffffffffffffff161461038f576040517f08c379a00000000000000000000000000000000000000000000000000000000081526004016103869061089c565b60405180910390fd5b47905090565b600044426001805490506040516020016103b1939291906108dd565b6040516020818303038152906040528051906020012060001c905090565b60008054906101000a900473ffffffffffffffffffffffffffffffffffffffff1673ffffffffffffffffffffffffffffffffffffffff163373ffffffffffffffffffffffffffffffffffffffff161461042757600080fd5b60006104316104f2565b90508073ffffffffffffffffffffffffffffffffffffffff166108fc60146104576102fe565b6104619190610949565b9081150290604051600060405180830381858888f1935050505015801561048c573d6000803e3d6000fd5b5050565b600067ffffffffffffffff8111156104ab576104aa61097a565b5b6040519080825280602002602001820160405280156104d95781602001602082028036833780820191505090505b50600190805190602001906104ef929190610602565b50565b60008060009054906101000a900473ffffffffffffffffffffffffffffffffffffffff1673ffffffffffffffffffffffffffffffffffffffff163373ffffffffffffffffffffffffffffffffffffffff1614610583576040517f08c379a000000000000000000000000000000000000000000000000000000000815260040161057a906109f5565b60405180910390fd5b6003600180549050101561059657600080fd5b60006105a0610395565b9050600080600180549050836105b69190610a15565b9050600181815481106105cc576105cb610a46565b5b9060005260206000200160009054906101000a900473ffffffffffffffffffffffffffffffffffffffff16915081935050505090565b82805482825590600052602060002090810192821561067b579160200282015b8281111561067a5782518260006101000a81548173ffffffffffffffffffffffffffffffffffffffff021916908373ffffffffffffffffffffffffffffffffffffffff16021790555091602001919060010190610622565b5b509050610688919061068c565b5090565b5b808211156106a557600081600090555060010161068d565b5090565b600082825260208201905092915050565b7f506c6561736520676976652073756666696369656e742062616c616e63650000600082015250565b60006106f0601e836106a9565b91506106fb826106ba565b602082019050919050565b6000602082019050818103600083015261071f816106e3565b9050919050565b600080fd5b6000819050919050565b61073e8161072b565b811461074957600080fd5b50565b60008135905061075b81610735565b92915050565b60006020828403121561077757610776610726565b5b60006107858482850161074c565b91505092915050565b600073ffffffffffffffffffffffffffffffffffffffff82169050919050565b60006107b98261078e565b9050919050565b6107c9816107ae565b82525050565b60006020820190506107e460008301846107c0565b92915050565b60006107f58261078e565b9050919050565b610805816107ea565b82525050565b600060208201905061082060008301846107fc565b92915050565b61082f8161072b565b82525050565b600060208201905061084a6000830184610826565b92915050565b7f596f7520617265206e6f7420746865206f776e65720000000000000000000000600082015250565b60006108866015836106a9565b915061089182610850565b602082019050919050565b600060208201905081810360008301526108b581610879565b9050919050565b6000819050919050565b6108d76108d28261072b565b6108bc565b82525050565b60006108e982866108c6565b6020820191506108f982856108c6565b60208201915061090982846108c6565b602082019150819050949350505050565b7f4e487b7100000000000000000000000000000000000000000000000000000000600052601260045260246000fd5b60006109548261072b565b915061095f8361072b565b92508261096f5761096e61091a565b5b828204905092915050565b7f4e487b7100000000000000000000000000000000000000000000000000000000600052604160045260246000fd5b7f796f7520617265206e6f7420746865206d616e61676572000000000000000000600082015250565b60006109df6017836106a9565b91506109ea826109a9565b602082019050919050565b60006020820190508181036000830152610a0e816109d2565b9050919050565b6000610a208261072b565b9150610a2b8361072b565b925082610a3b57610a3a61091a565b5b828206905092915050565b7f4e487b7100000000000000000000000000000000000000000000000000000000600052603260045260246000fdfea2646970667358221220fb0f3bd8b42dbc31c9e677b9a89107fc08846de7caa98bbe1c1afe83b395fa6864736f6c63430008120033",
					"opcodes": "PUSH1 0x80 PUSH1 0x40 MSTORE CALLVALUE DUP1 ISZERO PUSH2 0x10 JUMPI PUSH1 0x0 DUP1 REVERT JUMPDEST POP CALLER PUSH1 0x0 DUP1 PUSH2 0x100 EXP DUP2 SLOAD DUP2 PUSH20 0xFFFFFFFFFFFFFFFFFFFFFFFFFFFFFFFFFFFFFFFF MUL NOT AND SWAP1 DUP4 PUSH20 0xFFFFFFFFFFFFFFFFFFFFFFFFFFFFFFFFFFFFFFFF AND MUL OR SWAP1 SSTORE POP PUSH2 0xAAB DUP1 PUSH2 0x60 PUSH1 0x0 CODECOPY PUSH1 0x0 RETURN INVALID PUSH1 0x80 PUSH1 0x40 MSTORE PUSH1 0x4 CALLDATASIZE LT PUSH2 0x74 JUMPI PUSH1 0x0 CALLDATALOAD PUSH1 0xE0 SHR DUP1 PUSH4 0x5EC01E4D GT PUSH2 0x4E JUMPI DUP1 PUSH4 0x5EC01E4D EQ PUSH2 0x217 JUMPI DUP1 PUSH4 0xD1BB551B EQ PUSH2 0x242 JUMPI DUP1 PUSH4 0xD826F88F EQ PUSH2 0x259 JUMPI DUP1 PUSH4 0xF06E40BA EQ PUSH2 0x270 JUMPI PUSH2 0x17F JUMP JUMPDEST DUP1 PUSH4 0x35C1D349 EQ PUSH2 0x184 JUMPI DUP1 PUSH4 0x481C6A75 EQ PUSH2 0x1C1 JUMPI DUP1 PUSH4 0x4D9B3D5D EQ PUSH2 0x1EC JUMPI PUSH2 0x17F JUMP JUMPDEST CALLDATASIZE PUSH2 0x17F JUMPI PUSH8 0x1BC16D674EC80000 CALLVALUE EQ PUSH2 0xC3 JUMPI PUSH1 0x40 MLOAD PUSH32 0x8C379A000000000000000000000000000000000000000000000000000000000 DUP2 MSTORE PUSH1 0x4 ADD PUSH2 0xBA SWAP1 PUSH2 0x706 JUMP JUMPDEST PUSH1 0x40 MLOAD DUP1 SWAP2 SUB SWAP1 REVERT JUMPDEST PUSH1 0x0 DUP1 SLOAD SWAP1 PUSH2 0x100 EXP SWAP1 DIV PUSH20 0xFFFFFFFFFFFFFFFFFFFFFFFFFFFFFFFFFFFFFFFF AND PUSH20 0xFFFFFFFFFFFFFFFFFFFFFFFFFFFFFFFFFFFFFFFF AND CALLER PUSH20 0xFFFFFFFFFFFFFFFFFFFFFFFFFFFFFFFFFFFFFFFF AND SUB PUSH2 0x11B JUMPI PUSH1 0x0 DUP1 REVERT JUMPDEST PUSH1 0x1 CALLER SWAP1 DUP1 PUSH1 0x1 DUP2 SLOAD ADD DUP1 DUP3 SSTORE DUP1 SWAP2 POP POP PUSH1 0x1 SWAP1 SUB SWAP1 PUSH1 0x0 MSTORE PUSH1 0x20 PUSH1 0x0 KECCAK256 ADD PUSH1 0x0 SWAP1 SWAP2 SWAP1 SWAP2 SWAP1 SWAP2 PUSH2 0x100 EXP DUP2 SLOAD DUP2 PUSH20 0xFFFFFFFFFFFFFFFFFFFFFFFFFFFFFFFFFFFFFFFF MUL NOT AND SWAP1 DUP4 PUSH20 0xFFFFFFFFFFFFFFFFFFFFFFFFFFFFFFFFFFFFFFFF AND MUL OR SWAP1 SSTORE STOP JUMPDEST PUSH1 0x0 DUP1 REVERT JUMPDEST CALLVALUE DUP1 ISZERO PUSH2 0x190 JUMPI PUSH1 0x0 DUP1 REVERT JUMPDEST POP PUSH2 0x1AB PUSH1 0x4 DUP1 CALLDATASIZE SUB DUP2 ADD SWAP1 PUSH2 0x1A6 SWAP2 SWAP1 PUSH2 0x761 JUMP JUMPDEST PUSH2 0x29B JUMP JUMPDEST PUSH1 0x40 MLOAD PUSH2 0x1B8 SWAP2 SWAP1 PUSH2 0x7CF JUMP JUMPDEST PUSH1 0x40 MLOAD DUP1 SWAP2 SUB SWAP1 RETURN JUMPDEST CALLVALUE DUP1 ISZERO PUSH2 0x1CD JUMPI PUSH1 0x0 DUP1 REVERT JUMPDEST POP PUSH2 0x1D6 PUSH2 0x2DA JUMP JUMPDEST PUSH1 0x40 MLOAD PUSH2 0x1E3 SWAP2 SWAP1 PUSH2 0x80B JUMP JUMPDEST PUSH1 0x40 MLOAD DUP1 SWAP2 SUB SWAP1 RETURN JUMPDEST CALLVALUE DUP1 ISZERO PUSH2 0x1F8 JUMPI PUSH1 0x0 DUP1 REVERT JUMPDEST POP PUSH2 0x201 PUSH2 0x2FE JUMP JUMPDEST PUSH1 0x40 MLOAD PUSH2 0x20E SWAP2 SWAP1 PUSH2 0x835 JUMP JUMPDEST PUSH1 0x40 MLOAD DUP1 SWAP2 SUB SWAP1 RETURN JUMPDEST CALLVALUE DUP1 ISZERO PUSH2 0x223 JUMPI PUSH1 0x0 DUP1 REVERT JUMPDEST POP PUSH2 0x22C PUSH2 0x395 JUMP JUMPDEST PUSH1 0x40 MLOAD PUSH2 0x239 SWAP2 SWAP1 PUSH2 0x835 JUMP JUMPDEST PUSH1 0x40 MLOAD DUP1 SWAP2 SUB SWAP1 RETURN JUMPDEST CALLVALUE DUP1 ISZERO PUSH2 0x24E JUMPI PUSH1 0x0 DUP1 REVERT JUMPDEST POP PUSH2 0x257 PUSH2 0x3CF JUMP JUMPDEST STOP JUMPDEST CALLVALUE DUP1 ISZERO PUSH2 0x265 JUMPI PUSH1 0x0 DUP1 REVERT JUMPDEST POP PUSH2 0x26E PUSH2 0x490 JUMP JUMPDEST STOP JUMPDEST CALLVALUE DUP1 ISZERO PUSH2 0x27C JUMPI PUSH1 0x0 DUP1 REVERT JUMPDEST POP PUSH2 0x285 PUSH2 0x4F2 JUMP JUMPDEST PUSH1 0x40 MLOAD PUSH2 0x292 SWAP2 SWAP1 PUSH2 0x80B JUMP JUMPDEST PUSH1 0x40 MLOAD DUP1 SWAP2 SUB SWAP1 RETURN JUMPDEST PUSH1 0x1 DUP2 DUP2 SLOAD DUP2 LT PUSH2 0x2AB JUMPI PUSH1 0x0 DUP1 REVERT JUMPDEST SWAP1 PUSH1 0x0 MSTORE PUSH1 0x20 PUSH1 0x0 KECCAK256 ADD PUSH1 0x0 SWAP2 POP SLOAD SWAP1 PUSH2 0x100 EXP SWAP1 DIV PUSH20 0xFFFFFFFFFFFFFFFFFFFFFFFFFFFFFFFFFFFFFFFF AND DUP2 JUMP JUMPDEST PUSH1 0x0 DUP1 SLOAD SWAP1 PUSH2 0x100 EXP SWAP1 DIV PUSH20 0xFFFFFFFFFFFFFFFFFFFFFFFFFFFFFFFFFFFFFFFF AND DUP2 JUMP JUMPDEST PUSH1 0x0 DUP1 PUSH1 0x0 SWAP1 SLOAD SWAP1 PUSH2 0x100 EXP SWAP1 DIV PUSH20 0xFFFFFFFFFFFFFFFFFFFFFFFFFFFFFFFFFFFFFFFF AND PUSH20 0xFFFFFFFFFFFFFFFFFFFFFFFFFFFFFFFFFFFFFFFF AND CALLER PUSH20 0xFFFFFFFFFFFFFFFFFFFFFFFFFFFFFFFFFFFFFFFF AND EQ PUSH2 0x38F JUMPI PUSH1 0x40 MLOAD PUSH32 0x8C379A000000000000000000000000000000000000000000000000000000000 DUP2 MSTORE PUSH1 0x4 ADD PUSH2 0x386 SWAP1 PUSH2 0x89C JUMP JUMPDEST PUSH1 0x40 MLOAD DUP1 SWAP2 SUB SWAP1 REVERT JUMPDEST SELFBALANCE SWAP1 POP SWAP1 JUMP JUMPDEST PUSH1 0x0 PREVRANDAO TIMESTAMP PUSH1 0x1 DUP1 SLOAD SWAP1 POP PUSH1 0x40 MLOAD PUSH1 0x20 ADD PUSH2 0x3B1 SWAP4 SWAP3 SWAP2 SWAP1 PUSH2 0x8DD JUMP JUMPDEST PUSH1 0x40 MLOAD PUSH1 0x20 DUP2 DUP4 SUB SUB DUP2 MSTORE SWAP1 PUSH1 0x40 MSTORE DUP1 MLOAD SWAP1 PUSH1 0x20 ADD KECCAK256 PUSH1 0x0 SHR SWAP1 POP SWAP1 JUMP JUMPDEST PUSH1 0x0 DUP1 SLOAD SWAP1 PUSH2 0x100 EXP SWAP1 DIV PUSH20 0xFFFFFFFFFFFFFFFFFFFFFFFFFFFFFFFFFFFFFFFF AND PUSH20 0xFFFFFFFFFFFFFFFFFFFFFFFFFFFFFFFFFFFFFFFF AND CALLER PUSH20 0xFFFFFFFFFFFFFFFFFFFFFFFFFFFFFFFFFFFFFFFF AND EQ PUSH2 0x427 JUMPI PUSH1 0x0 DUP1 REVERT JUMPDEST PUSH1 0x0 PUSH2 0x431 PUSH2 0x4F2 JUMP JUMPDEST SWAP1 POP DUP1 PUSH20 0xFFFFFFFFFFFFFFFFFFFFFFFFFFFFFFFFFFFFFFFF AND PUSH2 0x8FC PUSH1 0x14 PUSH2 0x457 PUSH2 0x2FE JUMP JUMPDEST PUSH2 0x461 SWAP2 SWAP1 PUSH2 0x949 JUMP JUMPDEST SWAP1 DUP2 ISZERO MUL SWAP1 PUSH1 0x40 MLOAD PUSH1 0x0 PUSH1 0x40 MLOAD DUP1 DUP4 SUB DUP2 DUP6 DUP9 DUP9 CALL SWAP4 POP POP POP POP ISZERO DUP1 ISZERO PUSH2 0x48C JUMPI RETURNDATASIZE PUSH1 0x0 DUP1 RETURNDATACOPY RETURNDATASIZE PUSH1 0x0 REVERT JUMPDEST POP POP JUMP JUMPDEST PUSH1 0x0 PUSH8 0xFFFFFFFFFFFFFFFF DUP2 GT ISZERO PUSH2 0x4AB JUMPI PUSH2 0x4AA PUSH2 0x97A JUMP JUMPDEST JUMPDEST PUSH1 0x40 MLOAD SWAP1 DUP1 DUP3 MSTORE DUP1 PUSH1 0x20 MUL PUSH1 0x20 ADD DUP3 ADD PUSH1 0x40 MSTORE DUP1 ISZERO PUSH2 0x4D9 JUMPI DUP2 PUSH1 0x20 ADD PUSH1 0x20 DUP3 MUL DUP1 CALLDATASIZE DUP4 CALLDATACOPY DUP1 DUP3 ADD SWAP2 POP POP SWAP1 POP JUMPDEST POP PUSH1 0x1 SWAP1 DUP1 MLOAD SWAP1 PUSH1 0x20 ADD SWAP1 PUSH2 0x4EF SWAP3 SWAP2 SWAP1 PUSH2 0x602 JUMP JUMPDEST POP JUMP JUMPDEST PUSH1 0x0 DUP1 PUSH1 0x0 SWAP1 SLOAD SWAP1 PUSH2 0x100 EXP SWAP1 DIV PUSH20 0xFFFFFFFFFFFFFFFFFFFFFFFFFFFFFFFFFFFFFFFF AND PUSH20 0xFFFFFFFFFFFFFFFFFFFFFFFFFFFFFFFFFFFFFFFF AND CALLER PUSH20 0xFFFFFFFFFFFFFFFFFFFFFFFFFFFFFFFFFFFFFFFF AND EQ PUSH2 0x583 JUMPI PUSH1 0x40 MLOAD PUSH32 0x8C379A000000000000000000000000000000000000000000000000000000000 DUP2 MSTORE PUSH1 0x4 ADD PUSH2 0x57A SWAP1 PUSH2 0x9F5 JUMP JUMPDEST PUSH1 0x40 MLOAD DUP1 SWAP2 SUB SWAP1 REVERT JUMPDEST PUSH1 0x3 PUSH1 0x1 DUP1 SLOAD SWAP1 POP LT ISZERO PUSH2 0x596 JUMPI PUSH1 0x0 DUP1 REVERT JUMPDEST PUSH1 0x0 PUSH2 0x5A0 PUSH2 0x395 JUMP JUMPDEST SWAP1 POP PUSH1 0x0 DUP1 PUSH1 0x1 DUP1 SLOAD SWAP1 POP DUP4 PUSH2 0x5B6 SWAP2 SWAP1 PUSH2 0xA15 JUMP JUMPDEST SWAP1 POP PUSH1 0x1 DUP2 DUP2 SLOAD DUP2 LT PUSH2 0x5CC JUMPI PUSH2 0x5CB PUSH2 0xA46 JUMP JUMPDEST JUMPDEST SWAP1 PUSH1 0x0 MSTORE PUSH1 0x20 PUSH1 0x0 KECCAK256 ADD PUSH1 0x0 SWAP1 SLOAD SWAP1 PUSH2 0x100 EXP SWAP1 DIV PUSH20 0xFFFFFFFFFFFFFFFFFFFFFFFFFFFFFFFFFFFFFFFF AND SWAP2 POP DUP2 SWAP4 POP POP POP POP SWAP1 JUMP JUMPDEST DUP3 DUP1 SLOAD DUP3 DUP3 SSTORE SWAP1 PUSH1 0x0 MSTORE PUSH1 0x20 PUSH1 0x0 KECCAK256 SWAP1 DUP2 ADD SWAP3 DUP3 ISZERO PUSH2 0x67B JUMPI SWAP2 PUSH1 0x20 MUL DUP3 ADD JUMPDEST DUP3 DUP2 GT ISZERO PUSH2 0x67A JUMPI DUP3 MLOAD DUP3 PUSH1 0x0 PUSH2 0x100 EXP DUP2 SLOAD DUP2 PUSH20 0xFFFFFFFFFFFFFFFFFFFFFFFFFFFFFFFFFFFFFFFF MUL NOT AND SWAP1 DUP4 PUSH20 0xFFFFFFFFFFFFFFFFFFFFFFFFFFFFFFFFFFFFFFFF AND MUL OR SWAP1 SSTORE POP SWAP2 PUSH1 0x20 ADD SWAP2 SWAP1 PUSH1 0x1 ADD SWAP1 PUSH2 0x622 JUMP JUMPDEST JUMPDEST POP SWAP1 POP PUSH2 0x688 SWAP2 SWAP1 PUSH2 0x68C JUMP JUMPDEST POP SWAP1 JUMP JUMPDEST JUMPDEST DUP1 DUP3 GT ISZERO PUSH2 0x6A5 JUMPI PUSH1 0x0 DUP2 PUSH1 0x0 SWAP1 SSTORE POP PUSH1 0x1 ADD PUSH2 0x68D JUMP JUMPDEST POP SWAP1 JUMP JUMPDEST PUSH1 0x0 DUP3 DUP3 MSTORE PUSH1 0x20 DUP3 ADD SWAP1 POP SWAP3 SWAP2 POP POP JUMP JUMPDEST PUSH32 0x506C6561736520676976652073756666696369656E742062616C616E63650000 PUSH1 0x0 DUP3 ADD MSTORE POP JUMP JUMPDEST PUSH1 0x0 PUSH2 0x6F0 PUSH1 0x1E DUP4 PUSH2 0x6A9 JUMP JUMPDEST SWAP2 POP PUSH2 0x6FB DUP3 PUSH2 0x6BA JUMP JUMPDEST PUSH1 0x20 DUP3 ADD SWAP1 POP SWAP2 SWAP1 POP JUMP JUMPDEST PUSH1 0x0 PUSH1 0x20 DUP3 ADD SWAP1 POP DUP2 DUP2 SUB PUSH1 0x0 DUP4 ADD MSTORE PUSH2 0x71F DUP2 PUSH2 0x6E3 JUMP JUMPDEST SWAP1 POP SWAP2 SWAP1 POP JUMP JUMPDEST PUSH1 0x0 DUP1 REVERT JUMPDEST PUSH1 0x0 DUP2 SWAP1 POP SWAP2 SWAP1 POP JUMP JUMPDEST PUSH2 0x73E DUP2 PUSH2 0x72B JUMP JUMPDEST DUP2 EQ PUSH2 0x749 JUMPI PUSH1 0x0 DUP1 REVERT JUMPDEST POP JUMP JUMPDEST PUSH1 0x0 DUP2 CALLDATALOAD SWAP1 POP PUSH2 0x75B DUP2 PUSH2 0x735 JUMP JUMPDEST SWAP3 SWAP2 POP POP JUMP JUMPDEST PUSH1 0x0 PUSH1 0x20 DUP3 DUP5 SUB SLT ISZERO PUSH2 0x777 JUMPI PUSH2 0x776 PUSH2 0x726 JUMP JUMPDEST JUMPDEST PUSH1 0x0 PUSH2 0x785 DUP5 DUP3 DUP6 ADD PUSH2 0x74C JUMP JUMPDEST SWAP2 POP POP SWAP3 SWAP2 POP POP JUMP JUMPDEST PUSH1 0x0 PUSH20 0xFFFFFFFFFFFFFFFFFFFFFFFFFFFFFFFFFFFFFFFF DUP3 AND SWAP1 POP SWAP2 SWAP1 POP JUMP JUMPDEST PUSH1 0x0 PUSH2 0x7B9 DUP3 PUSH2 0x78E JUMP JUMPDEST SWAP1 POP SWAP2 SWAP1 POP JUMP JUMPDEST PUSH2 0x7C9 DUP2 PUSH2 0x7AE JUMP JUMPDEST DUP3 MSTORE POP POP JUMP JUMPDEST PUSH1 0x0 PUSH1 0x20 DUP3 ADD SWAP1 POP PUSH2 0x7E4 PUSH1 0x0 DUP4 ADD DUP5 PUSH2 0x7C0 JUMP JUMPDEST SWAP3 SWAP2 POP POP JUMP JUMPDEST PUSH1 0x0 PUSH2 0x7F5 DUP3 PUSH2 0x78E JUMP JUMPDEST SWAP1 POP SWAP2 SWAP1 POP JUMP JUMPDEST PUSH2 0x805 DUP2 PUSH2 0x7EA JUMP JUMPDEST DUP3 MSTORE POP POP JUMP JUMPDEST PUSH1 0x0 PUSH1 0x20 DUP3 ADD SWAP1 POP PUSH2 0x820 PUSH1 0x0 DUP4 ADD DUP5 PUSH2 0x7FC JUMP JUMPDEST SWAP3 SWAP2 POP POP JUMP JUMPDEST PUSH2 0x82F DUP2 PUSH2 0x72B JUMP JUMPDEST DUP3 MSTORE POP POP JUMP JUMPDEST PUSH1 0x0 PUSH1 0x20 DUP3 ADD SWAP1 POP PUSH2 0x84A PUSH1 0x0 DUP4 ADD DUP5 PUSH2 0x826 JUMP JUMPDEST SWAP3 SWAP2 POP POP JUMP JUMPDEST PUSH32 0x596F7520617265206E6F7420746865206F776E65720000000000000000000000 PUSH1 0x0 DUP3 ADD MSTORE POP JUMP JUMPDEST PUSH1 0x0 PUSH2 0x886 PUSH1 0x15 DUP4 PUSH2 0x6A9 JUMP JUMPDEST SWAP2 POP PUSH2 0x891 DUP3 PUSH2 0x850 JUMP JUMPDEST PUSH1 0x20 DUP3 ADD SWAP1 POP SWAP2 SWAP1 POP JUMP JUMPDEST PUSH1 0x0 PUSH1 0x20 DUP3 ADD SWAP1 POP DUP2 DUP2 SUB PUSH1 0x0 DUP4 ADD MSTORE PUSH2 0x8B5 DUP2 PUSH2 0x879 JUMP JUMPDEST SWAP1 POP SWAP2 SWAP1 POP JUMP JUMPDEST PUSH1 0x0 DUP2 SWAP1 POP SWAP2 SWAP1 POP JUMP JUMPDEST PUSH2 0x8D7 PUSH2 0x8D2 DUP3 PUSH2 0x72B JUMP JUMPDEST PUSH2 0x8BC JUMP JUMPDEST DUP3 MSTORE POP POP JUMP JUMPDEST PUSH1 0x0 PUSH2 0x8E9 DUP3 DUP7 PUSH2 0x8C6 JUMP JUMPDEST PUSH1 0x20 DUP3 ADD SWAP2 POP PUSH2 0x8F9 DUP3 DUP6 PUSH2 0x8C6 JUMP JUMPDEST PUSH1 0x20 DUP3 ADD SWAP2 POP PUSH2 0x909 DUP3 DUP5 PUSH2 0x8C6 JUMP JUMPDEST PUSH1 0x20 DUP3 ADD SWAP2 POP DUP2 SWAP1 POP SWAP5 SWAP4 POP POP POP POP JUMP JUMPDEST PUSH32 0x4E487B7100000000000000000000000000000000000000000000000000000000 PUSH1 0x0 MSTORE PUSH1 0x12 PUSH1 0x4 MSTORE PUSH1 0x24 PUSH1 0x0 REVERT JUMPDEST PUSH1 0x0 PUSH2 0x954 DUP3 PUSH2 0x72B JUMP JUMPDEST SWAP2 POP PUSH2 0x95F DUP4 PUSH2 0x72B JUMP JUMPDEST SWAP3 POP DUP3 PUSH2 0x96F JUMPI PUSH2 0x96E PUSH2 0x91A JUMP JUMPDEST JUMPDEST DUP3 DUP3 DIV SWAP1 POP SWAP3 SWAP2 POP POP JUMP JUMPDEST PUSH32 0x4E487B7100000000000000000000000000000000000000000000000000000000 PUSH1 0x0 MSTORE PUSH1 0x41 PUSH1 0x4 MSTORE PUSH1 0x24 PUSH1 0x0 REVERT JUMPDEST PUSH32 0x796F7520617265206E6F7420746865206D616E61676572000000000000000000 PUSH1 0x0 DUP3 ADD MSTORE POP JUMP JUMPDEST PUSH1 0x0 PUSH2 0x9DF PUSH1 0x17 DUP4 PUSH2 0x6A9 JUMP JUMPDEST SWAP2 POP PUSH2 0x9EA DUP3 PUSH2 0x9A9 JUMP JUMPDEST PUSH1 0x20 DUP3 ADD SWAP1 POP SWAP2 SWAP1 POP JUMP JUMPDEST PUSH1 0x0 PUSH1 0x20 DUP3 ADD SWAP1 POP DUP2 DUP2 SUB PUSH1 0x0 DUP4 ADD MSTORE PUSH2 0xA0E DUP2 PUSH2 0x9D2 JUMP JUMPDEST SWAP1 POP SWAP2 SWAP1 POP JUMP JUMPDEST PUSH1 0x0 PUSH2 0xA20 DUP3 PUSH2 0x72B JUMP JUMPDEST SWAP2 POP PUSH2 0xA2B DUP4 PUSH2 0x72B JUMP JUMPDEST SWAP3 POP DUP3 PUSH2 0xA3B JUMPI PUSH2 0xA3A PUSH2 0x91A JUMP JUMPDEST JUMPDEST DUP3 DUP3 MOD SWAP1 POP SWAP3 SWAP2 POP POP JUMP JUMPDEST PUSH32 0x4E487B7100000000000000000000000000000000000000000000000000000000 PUSH1 0x0 MSTORE PUSH1 0x32 PUSH1 0x4 MSTORE PUSH1 0x24 PUSH1 0x0 REVERT INVALID LOG2 PUSH5 0x6970667358 0x22 SLT KECCAK256 0xFB 0xF EXTCODESIZE 0xD8 0xB4 0x2D 0xBC BALANCE 0xC9 0xE6 PUSH24 0xB9A89107FC08846DE7CAA98BBE1C1AFE83B395FA6864736F PUSH13 0x63430008120033000000000000 "
				},
				"gasEstimates": {
					"creation": {
						"codeDepositCost": "546200",
						"executionCost": "24847",
						"totalCost": "571047"
					},
					"external": {
						"getbalance()": "2651",
						"manager()": "2534",
						"participants(uint256)": "4957",
						"random()": "infinite",
						"reset()": "infinite",
						"selectwinner()": "infinite",
						"transfermoney()": "infinite"
					}
				},
				"methodIdentifiers": {
					"getbalance()": "4d9b3d5d",
					"manager()": "481c6a75",
					"participants(uint256)": "35c1d349",
					"random()": "5ec01e4d",
					"reset()": "d826f88f",
					"selectwinner()": "f06e40ba",
					"transfermoney()": "d1bb551b"
				}
			},
			"storageLayout": {
				"storage": [
					{
						"astId": 3,
						"contract": "contracts/lottery.sol:Lottery",
						"label": "manager",
						"offset": 0,
						"slot": "0",
						"type": "t_address"
					},
					{
						"astId": 6,
						"contract": "contracts/lottery.sol:Lottery",
						"label": "participants",
						"offset": 0,
						"slot": "1",
						"type": "t_array(t_address_payable)dyn_storage"
					}
				],
				"types": {
					"t_address": {
						"encoding": "inplace",
						"label": "address",
						"numberOfBytes": "20"
					},
					"t_address_payable": {
						"encoding": "inplace",
						"label": "address payable",
						"numberOfBytes": "20"
					},
					"t_array(t_address_payable)dyn_storage": {
						"base": "t_address_payable",
						"encoding": "dynamic_array",
						"label": "address payable[]",
						"numberOfBytes": "32"
					}
				}
			},
			"userdoc": {
				"kind": "user",
				"methods": {},
				"version": 1
			}
		}
	}
}